:100000000C9494010C94F30B0C94C80B0C949D0B62
:100010000C94720B0C94470B0C941C0B0C94F10A6F
:100020000C94C60A0C94C5010C94C5010C94C5012E
:100030000C94C5010C94C5010C94C5010C94C50128
:100040000C94C5010C94C5010C94C5010C94C50118
:100050000C94C5010C94C5010C94C5010C947C0A48
:100060000C94C5010C94460A0C941C0A0C94C5010E
:100070000C94C5010C94C5010C94C5010C94C501E8
:100080000C94C5010C94C5010C94C5010C94C501D8
:100090000C94C5010C94C5010C94C5010C94C501C8
:1000A0000C94C5010C94C5010C94C5010C94C501B8
:1000B0000C94C5010C94C5010C94C5010C94C501A8
:1000C0000C94C5010C94C5010C94C5010C94C50198
:1000D0000C94C5010C94C5010C94C5010C94C50188
:1000E0000C94C501036EDB363D9A9999993DABAAF4
:1000F000AA2A3E000000803F072C7AA5BA6CC59062
:10010000DA3B9365FC8BBC53F810FD3C5692834D53
:10011000BD879D3AB63DCBC9BF5BBE73DA0FC93F01
:1001200005A84CCDB2D44EB93836A9020C50B991BD
:100130008688083CA6AAAA2ABE000000803F0C942C
:100140008E050C9400060C94C30C0C94FE040C94C5
:10015000E0030C9460030C94EF010C946A030C947C
:1001600056030C9466050C9498050C9457050C9452
:100170003A040C944D050C940B050C9406050C9454
:100180007C030C9470050C946E030C943F020C9449
:100190000D040C944B030C9431050C9443050C9402
:1001A00082030C9474030C9486030C94D2020C9476
:1001B0004F030C944D020C9485020C9466030C942E
:1001C0007A050C9453030C941F050C941C020C9498
:1001D00015050C9441030C9439050C9481030C947F
:1001E0005C030C9429050C942B020C9484050C944C
:1001F00047030C9478030C94B3036364696E6F70C7
:10020000737578585B0000002100240027002A0045
:100210002D003000330001010000040107010A0134
:1002200000002200250028002B002E0031003400A1
:1002300002010000050108010B010000200023005D
:10024000260029002C002F003200000100000301CD
:100250000601090105050505070508080808020249
:1002600002020A0A08080404040401010101010150
:1002700001010303030303030303040707070C0C33
:100280000C0C0C0C0C0C02020202060606060606FA
:1002900006060B0B0B0B0B0B0B0B0102102020089F
:1002A00008102040102040800201020108040201D1
:1002B0000102040810204080804020100804020140
:1002C0008004020180402010080402010804020199
:1002D0000102040810204080010204081020408020
:1002E00000000A0B02090C0D0E08070304010000B0
:1002F00000000000000000000000000000000000FE
:1003000000000000000000000000000012111000BA
:1003100000000000000000000000000000000000DD
:10032000000000000000C30C11241FBECFEFD1E27B
:10033000DEBFCDBF00E00CBF24E0A6EBB2E001C001
:100340001D92A23FB207E1F712E0A0E0B2E0E8E6BA
:10035000F8E300E00BBF02C007900D92A63BB10787
:10036000D9F711E0C4E9D1E000E006C02197010906
:10037000802FFE010E94DD18C339D10780E00807F5
:10038000A9F70E94140D0C94321C0C940000E7E0B5
:10039000F4E0A089B18982E08C93A485B5851C9294
:1003A000A685B78580E18C93108EA489B58986E0F7
:1003B0008C93A289B3898C9180618C93A289B38933
:1003C0008C9188608C93A289B3898C9180688C937E
:1003D0000288F389E02D80818F7D80830895AF921C
:1003E000BF92CF92DF92EF92FF920F931F93CF9322
:1003F000DF936C017B018B01040F151FEB015E0184
:10040000AE18BF08C017D10759F06991D601ED9118
:10041000FC910190F081E02DC6011995892B79F7A7
:10042000C501DF91CF911F910F91FF90EF90DF9069
:10043000CF90BF90AF900895FC01538D448D252F30
:1004400030E0842F90E0821B930B541710F0CF966E
:10045000089501970895FC01918D828D981761F0A0
:10046000A28DAE0FBF2FB11D5D968C91928D9F5FB7
:100470009F73928F90E008958FEF9FEF0895FC0196
:10048000918D828D981731F0828DE80FF11D858D49
:1004900090E008958FEF9FEF0895FC01918D228DDC
:1004A000892F90E0805C9F4F821B91098F73992761
:1004B000089587E094E00E944D0221E0892B09F421
:1004C00020E0822F0895FC01A48DA80FB92FB11D43
:1004D000A35ABF4F2C91848D90E001968F7399277A
:1004E000848FA689B7892C93A089B1898C91837058
:1004F00080648C93938D848D981306C00288F38951
:10050000E02D80818F7D80830895EF92FF920F937D
:100510001F93CF93DF93EC0181E0888F9B8D8C8DAF
:1005200098131AC0E889F989808185FF15C09FB7A3
:10053000F894EE89FF896083E889F9898081837066
:10054000806480839FBF81E090E0DF91CF911F9115
:100550000F91FF90EF900895F62E0B8D10E00F5F36
:100560001F4F0F731127E02E8C8D8E110CC00FB60C
:1005700007FCFACFE889F989808185FFF5CFCE01A4
:100580000E946302F1CFEB8DEC0FFD2FF11DE35ABA
:10059000FF4FF0829FB7F8940B8FEA89FB89808127
:1005A0008062CFCFCF93DF93EC01888D8823B9F0A1
:1005B000AA89BB89E889F9898C9185FD03C080816E
:1005C00086FD0DC00FB607FCF7CF8C9185FFF2CFEB
:1005D000808185FFEDCFCE010E946302E9CFDF91DC
:1005E000CF91089580E090E0892B29F00E94590274
:1005F00081110E94000080E090E0892B49F080E0AA
:1006000090E0892B29F00E94000081110E940000D7
:1006100080E090E0892B49F080E090E0892B29F080
:100620000E94000081110E94000080E090E0892B70
:1006300049F080E090E0892B29F00E9400008111B0
:100640000C94000008958150823108F05AC0E82FC0
:10065000F0E08827E15DFC4F8F4F0C94DD184F03CD
:100660005303410347034B03810356035C036003B9
:1006700066036A036E037403780381037C038203B9
:100680008603809180008F77809380000895809109
:1006900080008F7DF9CF80918000877FF5CF84B572
:1006A0008F7784BD089584B58F7DFBCF8091B00096
:1006B0008F778093B00008958091B0008F7DF9CF3F
:1006C000809190008F7780939000089580919000A2
:1006D0008F7DF9CF80919000877FF5CF8091A0002A
:1006E0008F778093A00008958091A0008F7DF9CF2F
:1006F0008091A000877FF5CF809120018F77809334
:1007000020010895809120018F7DF9CF80912001F3
:10071000877FF5CFCF93DF93282F30E0F901E052A8
:10072000FD4F8491F901E656FD4FD491F901EC5A41
:10073000FD4FC491CC23A1F081110E942303EC2F23
:10074000F0E0EE0FFF1FE65CFD4FA591B491EC9138
:10075000ED2381E090E009F480E0DF91CF910895EE
:1007600080E090E0FACFCF93DF9382E00E948A038B
:10077000EC0183E00E948A036FEF7FEFC817D9076F
:1007800011F461E070E0072E000C880B990B0E94B9
:1007900062159B01AC016091FB037091FC03809199
:1007A000FD039091FE030E94A2166093FB037093D9
:1007B000FC038093FD039093FE03DF91CF91089596
:1007C000CF93DF9382E00E948A03EC0183E00E94D2
:1007D0008A0361E070E0C817D90711F46FEF7FEF6B
:1007E000072E000C880B990B0E9462159B01AC012F
:1007F0006091FB037091FC038091FD039091FE03D7
:100800000E94A2166093FB037093FC038093FD0388
:100810009093FE03DF91CF910895CF93DF9382E110
:100820000E948A03EC0183E10E948A036FEF7FEF4D
:10083000C817D90711F461E070E0072E000C880B8F
:10084000990B0E9462159B01AC016091FF037091AE
:10085000000480910104909102040E94A21660930A
:10086000FF03709300048093010490930204DF91CE
:10087000CF910895CF93DF9382E10E948A03EC0128
:1008800083E10E948A0361E070E0C817D90711F480
:100890006FEF7FEF072E000C880B990B0E946215FB
:1008A0009B01AC016091FF037091000480910104F1
:1008B000909102040E94A2166093FF0370930004BB
:1008C0008093010490930204DF91CF9108951F93C8
:1008D000CF93DF93282F30E0F901E052FD4F849150
:1008E000F901E656FD4FD491F901EC5AFD4FC49140
:1008F000CC23A9F0162F81110E942303EC2FF0E0E6
:10090000EE0FFF1FE05EFD4FA591B4918FB7F894F5
:10091000EC91111108C0D095DE23DC938FBFDF91DD
:10092000CF911F910895DE2BF8CFCF93DF9390E006
:10093000FC01E656FD4F24918C5A9D4FFC01849199
:100940008823D1F090E0880F991FFC01EA5FFD4FEA
:10095000A591B491FC01E05EFD4FC591D491623048
:1009600071F49FB7F8943C91822F809583238C93E8
:10097000E8812E2B28839FBFDF91CF9108958FB7F9
:10098000F894EC912E2B2C938FBFF6CF1F93CF931F
:10099000DF93182FEB0161E00E949504209739F452
:1009A00060E0812FDF91CF911F910C946704CF3FBE
:1009B000D10511F461E0F5CFE12FF0E0E052FD4FF9
:1009C000E491E150E23108F0B3C0F0E08827E4514F
:1009D000FB4F8F4F0C94DD18FE0406050B05150523
:1009E0001F05980529053105390543054D055705AE
:1009F0006605700598057A0584058E0584B58068BE
:100A000084BDC7BDDF91CF911F91089584B58062E9
:100A100084BDC8BDF7CF809180008068809380003E
:100A2000D0938900C0938800EDCF809180008062D0
:100A300080938000D0938B00C0938A00E3CF809195
:100A40008000886080938000D0938D00C0938C00DC
:100A5000D9CF8091B00080688093B000C093B3007C
:100A6000D1CF8091B00080628093B000C093B40079
:100A7000C9CF80919000806880939000D0939900B6
:100A8000C0939800BFCF80919000806280939000C7
:100A9000D0939B00C0939A00B5CF8091900088605E
:100AA00080939000D0939D00C0939C00ABCF809129
:100AB000A00080688093A0008091A0008F7B80932D
:100AC000A000D093A900C093A8009CCF8091A00063
:100AD00080628093A000D093AB00C093AA0092CF15
:100AE0008091A00088608093A000D093AD00C09357
:100AF000AC0088CF80912001806880932001D09342
:100B00002901C09328017ECF8091200180628093CB
:100B10002001D0932B01C0932A0174CF8091200132
:100B2000886080932001D0932D01C0932C016ACF5F
:100B3000C038D1050CF03ECF33CF3FB7F894809149
:100B4000D5029091D602A091D702B091D80226B5D5
:100B5000A89B05C02F3F19F00196A11DB11D3FBFF5
:100B6000BA2FA92F982F8827BC01CD01620F711DC4
:100B7000811D911D42E0660F771F881F991F4A95BE
:100B8000D1F708958F929F92AF92BF92CF92DF924A
:100B9000EF92FF924B015C010E949D056B017C016D
:100BA0000E949D056C197D098E099F09683E73405E
:100BB00081059105A8F321E0821A9108A108B108E6
:100BC00088EEC80E83E0D81EE11CF11C811491044C
:100BD000A104B10429F7FF90EF90DF90CF90BF9070
:100BE000AF909F908F9008952FB7F8946091D102A5
:100BF0007091D2028091D3029091D4022FBF0895B8
:100C000008958F929F92AF92BF92CF92DF92EF9210
:100C1000FF920F931F93E091CE02F091CF02E01765
:100C2000F107A1F06093CA027093CB028093CC02CB
:100C30009093CD022093C6023093C7024093C8021E
:100C40005093C9021093CF020093CE0201151105F3
:100C500099F41092F3031092F4031092F50310929A
:100C6000F6031F910F91FF90EF90DF90CF90BF9010
:100C7000AF909F908F90089549015A012091CA0228
:100C80003091CB024091CC025091CD020E94A1162E
:100C900023E038E74EEA5BE30E94C1156B017C015B
:100CA0002091C6023091C7024091C8025091C902FA
:100CB000C501B4010E94A11623E038E74EEA5BE3C8
:100CC0000E94C1154B015C010130110519F5AC0101
:100CD0009B01C701B6010E945B1587FF0DC080E034
:100CE00090E0A0EAB0E48093F3039093F403A09320
:100CF000F503B093F603B5CFA5019401C701B60182
:100D00000E94701818160CF0A4CF80E090E0A0EAC2
:100D1000B0ECE9CF02301105A9F4F7FAF094F7F836
:100D2000F094AC019B01C701B6010E94701818161F
:100D300064F3A5019401C701B6010E945B1587FD0C
:100D4000CECF87CF03301105B1F4B7FAB094B7F81E
:100D5000B094A7019601C501B4010E945B1587FDFF
:100D6000D4CFA7019601C501B4010E9470181816CE
:100D70000CF4B5CF6ECF0430110509F072CFAC0181
:100D80009B01C701B6010E945B1587FF05C080E08B
:100D900090E0A0E2B1ECA7CFA5019401C701B60194
:100DA0000E94701818160CF054CF80E090E0A0E27A
:100DB000B1E499CFDF92EF92FF920F931F93CF93FD
:100DC000DF93D62ED42FC22F6093BC027093BD0246
:100DD0004093BA025093BB022093B8023093B902F9
:100DE0000093B6021093B7029093F8038093F70331
:100DF000F092F203E092F10360E087E00E94670462
:100E000060E088E00E94670460E089E00E94670477
:100E100060E08AE00E94670468EC70E080E090E0A7
:100E20000E94C2056D2D87E00E9467046D2F88E047
:100E30000E9467046C2F89E00E946704602F8AE09B
:100E4000DF91CF911F910F91FF90EF90DF900C9465
:100E50006704FC0101900020E9F73197AF01481BBE
:100E6000590BBC0187E094E00C94EF018F929F92A4
:100E7000AF92BF920F931F93CF93DF93CDB7DEB79F
:100E8000A1970FB6F894DEBF0FBECDBF19A24230B6
:100E900008F44AE08E010F5D1F4F842E912CB12C77
:100EA000A12CA50194010E947F16E62FB901CA0169
:100EB000EA30F4F4E05DD801EE938D01232B242B6E
:100EC000252B79F790E080E0109719F0CD010E9472
:100ED0002907A1960FB6F894DEBF0FBECDBFDF91F4
:100EE000CF911F910F91BF90AF909F908F900895D9
:100EF000E95CE1CF0C9429074F925F926F927F9249
:100F00008F929F92AF92BF92CF92DF92EF92FF9219
:100F10000F931F93CF936B017C01742EAC019B0147
:100F20000E94C318882399F08AE292E0CF911F9122
:100F30000F91FF90EF90DF90CF90BF90AF909F9078
:100F40008F907F906F905F904F900C94290746018F
:100F50005701E894B7F82FEF3FEF4FE75FE7C50180
:100F6000B4010E94C31881110DC02FEF3FEF4FE76E
:100F70005FE7C501B4010E945B1518161CF48EE2F0
:100F800092E0D4CF2FEF3FEF4FE75FE4C701B60108
:100F90000E94701818161CF482E392E0C7CF2FEF5E
:100FA0003FEF4FE75FECC701B6010E945B1587FD7D
:100FB000F3CF20E030E0A901C701B6010E945B1524
:100FC00010E000E087FF0AC06DE287E094E00E9435
:100FD00085028C01F7FAF094F7F8F094C0E060E035
:100FE00070E080E09FE37C1641F020E030E040E2DA
:100FF00051E40E942E17CF5FF6CFA70196010E9401
:10100000A2162B013C010E94A7174B015C014AE08C
:101010000E9436077C01E00EF11ECC23C1F1C50110
:10102000B4010E9460159B01AC01C301B2010E9492
:10103000A1164B015C016EE287E094E00E948502FC
:10104000E80EF91EC15018F120E030E040E251E412
:10105000C501B4010E94C1152B013C010E94A717D4
:101060004B01B12CA12C4AE0C501B4010E94360706
:10107000E80EF91EC501B4010E9460159B01AC0188
:10108000C301B2010E94A1164B015C01DBCFC70175
:10109000CF911F910F91FF90EF90DF90CF90BF9075
:1010A000AF909F908F907F906F905F904F9008953A
:1010B000CF92DF92EF92FF92CF93DF936C01990F63
:1010C000EE08FF08F7FE19C06DE287E094E00E9489
:1010D0008502EC0166277727CB016C197D098E0903
:1010E0009F094AE00E9436078C0F9D1FDF91CF9128
:1010F000FF90EF90DF90CF9008954AE0C701B601CE
:10110000DF91CF91FF90EF90DF90CF900C94360756
:10111000EF92FF920F931F93CF93DF9300D01F9214
:10112000CDB7DEB787E094E00E942B0287E094E021
:101130000E942B028E010F5F1F4F78018A3341F00E
:10114000F80181938F0187E094E00E942B02F6CF93
:10115000C7010E942915182F87E094E00E942B02F6
:101160008053990B8230910520F4682F812F0E94C3
:10117000670487E094E00E942B028A3011F08D30E2
:10118000C1F787E094E00E943F028A3021F487E0B3
:1011900094E00E942B020F900F900F900F90DF9120
:1011A000CF911F910F91FF90EF9008954F925F9212
:1011B0006F927F928F929F92AF92BF92CF92DF9267
:1011C000EF92FF92CF93DF9300D01F92CDB7DEB79F
:1011D0002B013C0129833A834B835C832091C2021B
:1011E0003091C3024091C4025091C5020E94A116E1
:1011F00023E038E74EEA5BE30E94C1156B017C01F6
:101200002091BE023091BF024091C0025091C102B4
:1012100069817A818B819C810E94A11623E038E745
:101220004EEA5BE30E94C1154B015C014092C20291
:101230005092C3026092C4027092C50289819A8161
:10124000AB81BC818093BE029093BF02A093C00289
:10125000B093C102A5019401C701B6010E94A11675
:1012600020E030E040E05FE30E94C11520911402CD
:101270003091150240911602509117020E942E17CC
:101280000E940E1720E030E040E050EC0E94C115B3
:1012900020EE3EE245E652E40E94C1152B013C01DE
:1012A000A5019401C701B6010E94A21620E030E01A
:1012B00040E05FE30E94C1156B017C018091ED026B
:1012C0009091EE02A091EF02B091F00289839A838F
:1012D000AB83BC8320E030E040E05FE3C301B201B8
:1012E0000E94C11529813A814B815C810E94A2161E
:1012F00025E33AEF4EE85CE30E94C1154B015C0127
:101300000E9475189058A70196010E94C1159B0173
:10131000AC016091E5027091E6028091E702909144
:10132000E8020E94A2166093E5027093E6028093A1
:10133000E7029093E802C501B4010E942917A701B2
:1013400096010E94C1159B01AC016091E102709170
:10135000E2028091E3029091E4020E94A21660935F
:10136000E1027093E2028093E3029093E402A7010A
:1013700096016091DD027091DE028091DF02909112
:10138000E0020E94A2166093DD027093DE02809359
:10139000DF029093E002A301920169817A818B813F
:1013A0009C810E94A2166B017C0120E030E044E3A6
:1013B00053E40E94701818168CF420E030E044EBDF
:1013C00053E4C701B6010E94A1166093ED02709329
:1013D000EE028093EF029093F00212C020E030E022
:1013E00044E353ECC701B6010E945B1587FD1BC0A7
:1013F000C092ED02D092EE02E092EF02F092F00283
:101400000F900F900F900F90DF91CF91FF90EF9082
:10141000DF90CF90BF90AF909F908F907F906F9014
:101420005F904F90089520E030E044EB53E4C70113
:10143000B6010E94A216C9CF1F920F920FB60F924B
:1014400011240BB60F922F933F934F935F936F939B
:101450007F938F939F93AF93BF93EF93FF9387E017
:1014600094E00E946302FF91EF91BF91AF919F9131
:101470008F917F916F915F914F913F912F910F903D
:101480000BBE0F900FBE0F901F9018951F920F92DA
:101490000FB60F9211240BB60F922F938F939F9339
:1014A000EF93FF93E0911704F09118048081E0918D
:1014B0001D04F0911E0482FD1DC0908180912004C6
:1014C0008F5F8F7320912104821741F0E0912004F7
:1014D000F0E0E95FFB4F958F80932004FF91EF913F
:1014E0009F918F912F910F900BBE0F900FBE0F9079
:1014F0001F9018958081F2CF1F920F920FB60F9216
:1015000011242F933F938F939F93AF93BF93809119
:10151000D1029091D202A091D302B091D402309125
:10152000D00223E0230F2D3758F50196A11DB11DE0
:101530002093D0028093D1029093D202A093D30241
:10154000B093D4028091D5029091D602A091D70297
:10155000B091D8020196A11DB11D8093D502909340
:10156000D602A093D702B093D802BF91AF919F91BA
:101570008F913F912F910F900FBE0F901F90189554
:1015800026E8230F0296A11DB11DD2CF1F920F9204
:101590000FB60F9211240BB60F922F933F934F93D8
:1015A0005F936F937F938F939F93AF93BF93EF93CB
:1015B000FF93E0910E02F0910F021995FF91EF91C8
:1015C000BF91AF919F918F917F916F915F914F915B
:1015D0003F912F910F900BBE0F900FBE0F901F9059
:1015E00018951F920F920FB60F9211240BB60F92FF
:1015F0002F933F934F935F936F937F938F939F931B
:10160000AF93BF93EF93FF93E0910C02F0910D0223
:101610001995FF91EF91BF91AF919F918F917F911C
:101620006F915F914F913F912F910F900BBE0F9053
:101630000FBE0F901F9018951F920F920FB60F922A
:1016400011240BB60F922F933F934F935F936F9399
:101650007F938F939F93AF93BF93EF93FF93E0910B
:101660000202F09103021995FF91EF91BF91AF91A2
:101670009F918F917F916F915F914F913F912F91AA
:101680000F900BBE0F900FBE0F901F9018951F92DA
:101690000F920FB60F9211240BB60F922F933F9318
:1016A0004F935F936F937F938F939F93AF93BF936A
:1016B000EF93FF93E0910002F09101021995FF91E1
:1016C000EF91BF91AF919F918F917F916F915F91BA
:1016D0004F913F912F910F900BBE0F900FBE0F9027
:1016E0001F9018951F920F920FB60F9211240BB6F0
:1016F0000F922F933F934F935F936F937F938F93AB
:101700009F93AF93BF93EF93FF93E0910A02F09101
:101710000B021995FF91EF91BF91AF919F918F911E
:101720007F916F915F914F913F912F910F900BBEE1
:101730000F900FBE0F901F9018951F920F920FB62B
:101740000F9211240BB60F922F933F934F935F93F9
:101750006F937F938F939F93AF93BF93EF93FF9379
:10176000E0910802F09109021995FF91EF91BF9164
:10177000AF919F918F917F916F915F914F913F9129
:101780002F910F900BBE0F900FBE0F901F901895CA
:101790001F920F920FB60F9211240BB60F922F9338
:1017A0003F934F935F936F937F938F939F93AF93E9
:1017B000BF93EF93FF93E0910602F0910702199512
:1017C000FF91EF91BF91AF919F918F917F916F9119
:1017D0005F914F913F912F910F900BBE0F900FBED5
:1017E0000F901F9018951F920F920FB60F92112411
:1017F0000BB60F922F933F934F935F936F937F930B
:101800008F939F93AF93BF93EF93FF93E091040265
:10181000F09105021995FF91EF91BF91AF919F91C2
:101820008F917F916F915F914F913F912F910F9089
:101830000BBE0F900FBE0F901F9018954F925F92A6
:101840006F927F928F929F92AF92BF92CF92DF92D0
:10185000EF92FF920F931F9381E4E82EF12C10E09A
:1018600000E021E030E050E040E061E070E08CE337
:1018700090E00E94DA066091DD027091DE028091B4
:10188000DF029091E0020E94A0176B01770FEE0833
:10189000FF08C701B6010E9462159B01AC0160916F
:1018A000DD027091DE028091DF029091E0020E94E1
:1018B000A116209110023091110240911202509114
:1018C00013020E945B1587FF4FC04090FF035090AA
:1018D000000460900104709002048090FB039090DB
:1018E000FC03A090FD03B090FE03A3019201C5018B
:1018F000B4010E94D6080091F9031091FA03A301E4
:101900009201C501B4010E9401068090F3039090FA
:10191000F403A090F503B090F6036091F703709183
:10192000F803072E000C880B990B0E946215A50185
:1019300094010E94A2160E94A01786E00E94C6048D
:101940006091F1037091F203072E000C880B990B44
:101950000E946215A50194010E94A1160E94A01781
:101960008BE00E94C60495CF1F910F91FF90EF90DE
:10197000DF90CF90BF90AF909F908F907F906F90AF
:101980005F904F900895E7E0F4E01382128288EEB2
:1019900093E0A0E0B0E084839583A683B7838CE1D5
:1019A00092E09183808385EC90E09587848784EC36
:1019B00090E09787868780EC90E0918B808B81EC1C
:1019C00090E0938B828B82EC90E0958B848B86ECFD
:1019D00090E0978B868B118E128E138E148EE4EA14
:1019E000F4E01682178210861186128613861486FA
:1019F000158616861786108A118A128A138A148A07
:101A0000158A0E94F4056093EE047093EF048093AE
:101A1000F0049093F1046093EA047093EB048093D4
:101A2000EC049093ED040895CF93DF9300D000D0A1
:101A3000CDB7DEB7789484B5826084BD84B581600B
:101A400084BD85B5826085BD85B5816085BD809189
:101A50006E00816080936E00109281008091810001
:101A600082608093810080918100816080938100F9
:101A7000809180008160809380008091B1008460BB
:101A80008093B1008091B00081608093B00080911C
:101A90009100826080939100809191008160809399
:101AA0009100809190008160809390008091A100CE
:101AB00082608093A1008091A10081608093A10049
:101AC0008091A00081608093A000809121018260BC
:101AD0008093210180912101816080932101809177
:101AE000200181608093200180917A00846080933E
:101AF0007A0080917A00826080937A0080917A00E7
:101B0000816080937A0080917A00806880937A0067
:101B10001092C1001092E6041092E7041092E804BB
:101B20001092E9041092A6041092A7041092A8043F
:101B30001092A9040E94F4056B017C014B015C0129
:101B400028EB820E2BE0921EA11CB11C0E94F40512
:101B50006C157D058E059F0528F086169706A8064C
:101B6000B906A0F768EE73E080E090E00E94C2053D
:101B70000E94C7010E94F4056093A6047093A70415
:101B80008093A8049093A90486E392E00E947A07C8
:101B90000E94F4056B017C014B015C013AE0830E6D
:101BA000911CA11CB11C0E94F4056C157D058E05CD
:101BB0009F0528F086169706A806B906A0F781E0CB
:101BC0008093BA040E94F4056093A6047093A7045E
:101BD0008093A8049093A90487E492E00E947A0776
:101BE0000E94C70161E086E00E94950461E08BE0FD
:101BF0000E94950461E087E00E94950461E088E01E
:101C00000E94950461E089E00E94950461E08AE009
:101C10000E94950461E08DE00E94950462E082E0FC
:101C20000E94950462E083E00E94950462E082E1F4
:101C30000E94950462E083E10E94950460E087E0E1
:101C40000E94670460E088E00E94670460E089E029
:101C50000E94670460E08AE00E94670470E060E030
:101C600086E00E94C60470E060E08BE00E94C6043B
:101C700083EB93E0909301028093000280916A00CD
:101C80008C7F816080936A00EC9A80EE93E0909361
:101C900003028093020280916A00837F84608093B4
:101CA0006A00ED9A8DE094E0909309028093080217
:101CB000809169008F7C806180936900EA9A8AE351
:101CC00094E090930B0280930A02809169008F73D5
:101CD000806480936900EB9AF12CE12C10E000E025
:101CE00030E020E050E040E070E060E090E080E034
:101CF0000E94DA0684E0282E312C0E94F405672B1E
:101D0000682B692B09F4F3C00E94F40500910304C9
:101D100010910404209105043091060460177107A6
:101D20008207930708F463C100910304109104042F
:101D300020910504309106046B017C01C01AD10A80
:101D4000E20AF30A970186010A3F110521053105D0
:101D500008F4D5C0609303047093040480930504D1
:101D60009093060424EF31E040E050E02093B20469
:101D70003093B3044093B4045093B5041092B60466
:101D80001092B7041092B8041092B9048091AA047A
:101D90009091AB04A091AC04B091AD048093AE04DB
:101DA0009093AF04A093B004B093B1040E94F405E3
:101DB0006093AA047093AB048093AC049093AD0439
:101DC00087E094E00E943F02843611F40E94880864
:101DD0000E94F4056093A6047093A7048093A8045E
:101DE0009093A9040E94F4056B017C018EE492E0BB
:101DF0000E947A074AE061E070E080E090E00E9493
:101E0000360785E592E00E947A074AE0C701B601ED
:101E10000E94360787E592E00E947A078091AA0423
:101E20009091AB04A091AC04B091AD04A7019601D0
:101E3000281B390B4A0B5B0BCA01B9014AE00E940F
:101E4000360787E592E00E947A076091AA047091B4
:101E5000AB048091AC049091AD040091AE0410915C
:101E6000AF042091B0043091B104601B710B820B60
:101E7000930B4AE00E94360789E592E00E947A07B8
:101E80000E94F4054AE00E9436078BE592E00E942A
:101E9000290782E692E00E9429070E94F4054B017F
:101EA0005C017C016B0135E0C30ED11CE11CF11C0F
:101EB0000E94F405681579058A059B0528F0C61669
:101EC000D706E806F906A0F787E094E00E943F02F3
:101ED000843611F40E9488080E94F4056093AA04D5
:101EE0007093AB048093AC049093AD0408C00E943F
:101EF000F405623071058105910508F005CF0E9457
:101F0000F4056093EE047093EF048093F0049093D3
:101F1000F1048090FF0390900004A0900104B09021
:101F20000204C090FB03D090FC03E090FD03F0900E
:101F3000FE03A5019401C701B6010E94D6080091D5
:101F4000F9031091FA03A5019401C701B6010E949B
:101F50000106C090F303D090F403E090F503F090F5
:101F6000F6036091F7037091F803072E000C880BBD
:101F7000990B0E946215A70196010E94A2160E9469
:101F8000A01786E00E94C6046091F1037091F203ED
:101F9000072E000C880B990B0E946215A701960171
:101FA0000E94A1160E94A0178BE00E94C60487E041
:101FB00094E00E944D02892B09F41AC341EF52E0CC
:101FC0005E834D838A0187E094E00E944D02892B55
:101FD000B9F087E094E00E942B02D8018D938D0127
:101FE00061E070E080E090E00E94C205ECCF609379
:101FF000030470930404809305049093060494CE24
:1020000065E672E081EF92E00E94E518892B71F499
:102010001092FA031092F90361E4E62EF12C10E01D
:1020200000E030E020E050E040E045C06DE672E0C6
:1020300081EF92E00E94E518892B31F581E090E074
:102040009093FA038093F90301E4E02EF12C10E061
:1020500000E021E030E050E040E061E070E08CE33F
:1020600090E00E94DA068091ED029091EE02A0913C
:10207000EF02B091F0028093E9029093EA02A093FC
:10208000EB02B093EC021DC063E772E081EF92E0D7
:102090000E94E518892BC1F4E2E0F0E0F093FA0326
:1020A000E093F90311E4E12EF12C10E000E021E0CF
:1020B00030E041E050E070E060E08CE390E00E94AE
:1020C000DA068AE692E0F6C268E772E081EF92E013
:1020D0000E94E518892B99F4A3E0CA2ED12CD09246
:1020E000FA03C092F903B1E4EB2EF12C01E010E009
:1020F00030E020E050E040E061E070E0DECF6EE7ED
:1021000072E081EF92E00E94E518892B81F4309211
:10211000FA032092F903F1E4EF2EF12C01E010E034
:1021200030E020E041E050E070E060E098CF63E80C
:1021300072E081EF92E00E94E518892B61F5109220
:10214000FA031092F903E1E4EE2EF12C10E000E026
:1021500030E020E050E040E070E060E08CE390E0B0
:102160000E94DA061092ED021092EE021092EF0237
:102170001092F0021092E5021092E6021092E7022D
:102180001092E8021092E1021092E2021092E30231
:102190001092E40296CF69E872E081EF92E00E942B
:1021A000E518892B09F0DEC08091ED029091EE02D6
:1021B000A091EF02B091F0028093E9029093EA02BD
:1021C000A093EB02B093EC023092FA032092F90351
:1021D00071E4E72EF12C01E010E030E020E041E076
:1021E00050E070E060E08CE390E00E94DA066091DD
:1021F000DD027091DE028091DF029091E0020E9488
:10220000A0176B01770FEE08FF08C982DA82EB8214
:10221000FC8269817A818B819C810E946215209168
:10222000DD023091DE024091DF025091E0020E9417
:10223000A11620E030E048EC52E40E945B1587FFD5
:1022400088C00E94F4056B017C01C092EE04D0921C
:10225000EF04E092F004F092F1044090FF035090FC
:10226000000460900104709002048090FB03909041
:10227000FC03A090FD03B090FE03A3019201C501F1
:10228000B4010E94D6080091F9031091FA03A3014A
:102290009201C501B4010E9401068090F303909061
:1022A000F403A090F503B090F6036091F7037091EA
:1022B000F803072E000C880B990B0E946215A501EC
:1022C00094010E94A2160E94A01786E00E94C604F4
:1022D0006091F1037091F203072E000C880B990BAB
:1022E0000E946215A50194010E94A1160E94A017E8
:1022F0008BE00E94C6048091EA049091EB04A091C7
:10230000EC04B091ED048C599F4FAF4FBF4F8C152B
:102310009D05AE05BF050CF07CCF6091DD0270918C
:10232000DE028091DF029091E00242E00E947C0791
:102330008091EE049091EF04A091F004B091F1042B
:102340008093EA049093EB04A093EC04B093ED0423
:1023500060CF1092DD021092DE021092DF02109226
:10236000E00256CE6EE872E081EF92E00E94E5183E
:10237000892B09F0DDC061E08DE00E946704809147
:10238000ED029091EE02A091EF02B091F0028093E5
:10239000E9029093EA02A093EB02B093EC0281E091
:1023A00090E09093FA038093F90351E4E52EF12C29
:1023B00010E000E021E030E050E040E061E070E05B
:1023C0008CE390E00E94DA066091DD027091DE02FB
:1023D0008091DF029091E0020E94A0176B01770FBD
:1023E000EE08FF08C982DA82EB82FC8269817A8179
:1023F0008B819C810E9462159B01AC016091DD0282
:102400007091DE028091DF029091E0020E94A1169D
:1024100020E030E048EC52E40E945B1587FF99CF42
:102420000E94F4056B017C01C092EE04D092EF048F
:10243000E092F004F092F1044090FF035090000409
:1024400060900104709002048090FB039090FC0364
:10245000A090FD03B090FE03A3019201C501B40159
:102460000E94D6080091F9031091FA03A30192018A
:10247000C501B4010E9401068090F3039090F4031B
:10248000A090F503B090F6036091F7037091F80304
:10249000072E000C880B990B0E946215A501940170
:1024A0000E94A2160E94A01786E00E94C6046091B6
:1024B000F1037091F203072E000C880B990B0E9418
:1024C0006215A50194010E94A1160E94A0178BE03D
:1024D0000E94C6048091EA049091EB04A091EC0460
:1024E000B091ED048C599F4FAF4FBF4F8C159D0598
:1024F000AE05BF050CF07ACF6091DD027091DE026F
:102500008091DF029091E00242E00E947C0780917E
:10251000EE049091EF04A091F004B091F104809347
:10252000EA049093EB04A093EC04B093ED045ECF27
:1025300063E972E081EF92E00E94E518892BB9F41B
:102540002AE037ED43E25CE36091140270911502DA
:1025500080911602909117020E94A21660931402B5
:10256000709315028093160290931702AACD66E924
:1025700072E081EF92E00E94E518892B79F42AE05D
:1025800037ED43E25CE36091140270911502809193
:102590001602909117020E94A116E0CF81EF92E0FF
:1025A0001091F102153539F52091F2022E3619F508
:1025B00040E1E42E42E0F42EFF92EF924BE952E02C
:1025C0005F934F939F938F930E94EE188AE692E059
:1025D0000E947A070F900F900F900F900F900F901E
:1025E000AD81BE811D92BE83AD83A15FB340C1F7B3
:1025F0000E94F20282CB63EA72E081EF92E00E94D5
:10260000E518892B09F059C087EA92E00E947A0701
:102610002091100230911102409112025091130248
:102620006091E5027091E6028091E7029091E802E4
:102630000E942E170E94A017CB010E9458088AEA18
:1026400092E00E947A07209110023091110240918D
:102650001202509113026091E1027091E2028091A6
:10266000E3029091E4020E942E170E94A017CB0172
:102670000E9458088AEA92E00E947A076091ED026F
:102680007091EE028091EF029091F0024AE00E9478
:102690007C078AEA92E00E947A07609114027091A6
:1026A0001502809116029091170242E00E947C0769
:1026B00080E692E00E947A0793CF173609F090CF18
:1026C00081EF92E02091F2022F3609F089CF10922B
:1026D000DC021092DB021092DA021092D902E9EDCC
:1026E000F2E0FF93EF933BEDE32E32E0F32EFF9207
:1026F000EF924CEA52E05F934F939F938F930E9427
:10270000EE188091DB029091DC020FB6F894DEBFE8
:102710000FBECDBF8130910509F085C021E4E22EC6
:10272000F12C01E010E030E020E050E040E061E01A
:1027300070E08CE390E00E94DA064090ED02509049
:10274000EE026090EF027090F0024092E902509227
:10275000EA026092EB027092EC0220E030E044EB7F
:1027600052E4C301B2010E94A1162091ED02309102
:10277000EE024091EF025091F0020E945B1587FF3C
:102780004FC08090FF0390900004A0900104B0908F
:102790000204C090FB03D090FC03E090FD03F09096
:1027A000FE03A5019401C701B6010E94D60800915D
:1027B000F9031091FA03A5019401C701B6010E9423
:1027C0000106C090F303D090F403E090F503F0907D
:1027D000F6036091F7037091F803072E000C880B45
:1027E000990B0E946215A70196010E94A2160E94F1
:1027F000A01786E00E94C6046091F1037091F20375
:10280000072E000C880B990B0E946215A7019601F8
:102810000E94A1160E94A0178BE00E94C6049DCFC3
:102820000E941E0C4ECC019609F082C091E4E92E64
:10283000F12C10E000E021E030E041E050E070E0F9
:1028400060E08CE390E00E94DA064090ED02509048
:10285000EE026090EF027090F0024092E902509216
:10286000EA026092EB027092EC0220E030E044EB6E
:1028700052E4C301B2010E94A2162091ED023091F0
:10288000EE024091EF025091F0020E94701818166B
:102890003CF68090FF0390900004A0900104B0905B
:1028A0000204C090FB03D090FC03E090FD03F09085
:1028B000FE03A5019401C701B6010E94D60800914C
:1028C000F9031091FA03A5019401C701B6010E9412
:1028D0000106C090F303D090F403E090F503F0906C
:1028E000F6036091F7037091F803072E000C880B34
:1028F000990B0E946215A70196010E94A2160E94E0
:10290000A01786E00E94C6046091F1037091F20363
:10291000072E000C880B990B0E946215A7019601E7
:102920000E94A1160E94A0178BE00E94C6049DCFB2
:102930008091D9029091DA028130910509F470CF2B
:10294000019609F04DCE81E4E82EF12C01E010E073
:1029500030E020E041E050E070E060E08CE390E0A7
:102960000E94DA066091DD027091DE028091DF0242
:102970009091E0020E94A0176B01770FEE08FF080C
:10298000C701B6010E9462152091DD023091DE027E
:102990004091DF025091E0020E94A11620911002A6
:1029A0003091110240911202509113020E945B1566
:1029B00087FF87CB4090FF03509000046090010494
:1029C000709002048090FB039090FC03A090FD03A4
:1029D000B090FE03A3019201C501B4010E94D60884
:1029E0000091F9031091FA03A3019201C501B4010A
:1029F0000E9401068090F3039090F403A090F503E9
:102A0000B090F6036091F7037091F803072E000C65
:102A1000880B990B0E946215A50194010E94A216D1
:102A20000E94A01786E00E94C6046091F103709195
:102A3000F203072E000C880B990B0E946215A5016A
:102A400094010E94A1160E94A0178BE00E94C60468
:102A500097CFFC0188279927E89421912032E9F348
:102A6000293010F02E30C8F32B3241F02D3239F4DA
:102A7000689404C00E945015820F911D219120532B
:102A80002A30C0F31EF4909581959F4F08959111BF
:102A90000C945815803219F089508550C8F7089564
:102AA0007AE0979F902D879F802D910D1124089596
:102AB0009927882708950E949D1508F481E00895BC
:102AC000E89409C097FB3EF49095809570956195C8
:102AD0007F4F8F4F9F4F9923A9F0F92F96E9BB277E
:102AE0009395F695879577956795B795F111F8CFFA
:102AF000FAF4BB0F11F460FF1BC06F5F7F4F8F4F65
:102B00009F4F16C0882311F096E911C0772321F05A
:102B10009EE8872F762F05C0662371F096E8862FF2
:102B200070E060E02AF09A95660F771F881FDAF749
:102B3000880F9695879597F90895990F0008550F76
:102B4000AA0BE0E8FEEF16161706E807F907C0F033
:102B500012161306E407F50798F0621B730B840B3B
:102B6000950B39F40A2661F0232B242B252B21F415
:102B700008950A2609F4A140A6958FEF811D811DB5
:102B800008950E94D4150C9445160E94371638F00B
:102B90000E943E1620F0952311F00C942E160C94F2
:102BA000341611240C9479160E94561670F3959FD2
:102BB000C1F3950F50E0551F629FF001729FBB2734
:102BC000F00DB11D639FAA27F00DB11DAA1F649FD0
:102BD0006627B00DA11D661F829F2227B00DA11D83
:102BE000621F739FB00DA11D621F839FA00D611D09
:102BF000221F749F3327A00D611D231F849F600D2A
:102C0000211D822F762F6A2F11249F5750409AF052
:102C1000F1F088234AF0EE0FFF1FBB1F661F771FDE
:102C2000881F91505040A9F79E3F510580F00C94A9
:102C30002E160C9479165F3FE4F3983ED4F38695F4
:102C400077956795B795F795E7959F5FC1F7FE2B49
:102C5000880F911D9695879597F9089597F99F6725
:102C600080E870E060E008959FEF80EC0895002414
:102C70000A941616170618060906089500240A94E1
:102C800012161306140605060895092E0394000C67
:102C900011F4882352F0BB0F40F4BF2B11F460FFF6
:102CA00004C06F5F7F4F8F4F9F4F089557FD90581F
:102CB000440F551F59F05F3F71F04795880F97FB00
:102CC000991F61F09F3F79F08795089512161306BA
:102CD0001406551FF2CF4695F1DF08C016161706E9
:102CE0001806991FF1CF869571056105089408951E
:102CF000E894BB2766277727CB0197F90895A1E2CF
:102D00001A2EAA1BBB1BFD010DC0AA1FBB1FEE1F65
:102D1000FF1FA217B307E407F50720F0A21BB30BB0
:102D2000E40BF50B661F771F881F991F1A9469F72C
:102D300060957095809590959B01AC01BD01CF0188
:102D400008955058BB27AA270E94B9160C9445161F
:102D50000E94371638F00E943E1620F039F49F3F4B
:102D600019F426F40C9434160EF4E095E7FB0C9459
:102D70002E16E92F0E94561658F3BA1762077307EA
:102D80008407950720F079F4A6F50C9478160EF4D4
:102D9000E0950B2EBA2FA02D0B01B90190010C016B
:102DA000CA01A0011124FF27591B99F0593F50F483
:102DB000503E68F11A16F040A22F232F342F4427DB
:102DC000585FF3CF469537952795A795F0405395D3
:102DD000C9F77EF41F16BA0B620B730B840BBAF0A3
:102DE0009150A1F0FF0FBB1F661F771F881FC2F70E
:102DF0000EC0BA0F621F731F841F48F48795779522
:102E00006795B795F7959E3F08F0B0CF9395880FDB
:102E100008F09927EE0F9795879508959F939F77D0
:102E2000EEE389379E0728F4E4EEF0E00E941D18D7
:102E30000CC00E94D6179058A2EA2AED3FE049EC58
:102E40005FE30E94B9160E9445160F9007FC905848
:102E500008950E943318E3950C945C180E94421761
:102E60000C9445160E943E1658F00E94371640F00A
:102E700029F45F3F29F00C942E1651110C94791609
:102E80000C9434160E94561668F39923B1F3552317
:102E900091F3951B550BBB27AA276217730784076D
:102EA00038F09F5F5F4F220F331F441FAA1FA9F303
:102EB00035D00E2E3AF0E0E832D091505040E695F1
:102EC000001CCAF72BD0FE2F29D0660F771F881F52
:102ED000BB1F261737074807AB07B0E809F0BB0B45
:102EE000802DBF01FF2793585F4F3AF09E3F510559
:102EF00078F00C942E160C9479165F3FE4F3983E0C
:102F0000D4F3869577956795B795F7959F5FC9F741
:102F1000880F911D9695879597F90895E1E0660FC2
:102F2000771F881FBB1F621773078407BA0720F03B
:102F3000621B730B840BBA0BEE1F88F7E0950895A4
:102F40000E94A7176894B1110C94791608950E94F5
:102F50005E1688F09F5798F0B92F9927B751B0F0B7
:102F6000E1F0660F771F881F991F1AF0BA95C9F70D
:102F700014C0B13091F00E947816B1E008950C941D
:102F80007816672F782F8827B85F39F0B93FCCF3D0
:102F9000869577956795B395D9F73EF4909580958A
:102FA000709561957F4F8F4F9F4F0895DF93CF931B
:102FB0001F930F938B01EC01E8EFF0E00E94F617EE
:102FC0000E9445169801AE018B01EC0160E070E0B3
:102FD00080E89FE30E94A1160E9483189801AE0129
:102FE0000F911F91CF91DF910C94D415DF93CF9364
:102FF0001F930F93FF92EF92DF927B018C016894F5
:1030000006C0DA2EEF010E94D415FE01E894A591C6
:103010002591359145915591A6F3EF010E94B9167E
:10302000FE019701A801DA9469F7DF90EF90FF9015
:103030000F911F91CF91DF9108959F938F937F936D
:103040006F93FF93EF939B01AC010E94C115EF9129
:10305000FF910E94F6172F913F914F915F910C9431
:10306000C1150C9434160E945E16D8F3E894E0E083
:10307000BB279F57F0F02AED3FE049EC06C0EE0F6A
:10308000BB0F661F771F881F28F0B23A62077307CD
:10309000840728F0B25A620B730B840BE3959A9560
:1030A00072F7803830F49A95BB0F661F771F881F20
:1030B000D2F790480C94CA18EF93E0FF07C0A2EA39
:1030C0002AED3FE049EC5FEB0E94B9160E944516DD
:1030D0000F90039401FC9058E0E2F1E00C941D186D
:1030E0000E949D1508F48FEF08959F930E94331856
:1030F0000F9007FCEE5F0C945C1819F416F40C9416
:1031000034160C94C8180E945E16B8F39923C9F3BC
:10311000B6F39F57550B87FF0E94D6180024A0E6F0
:1031200040EA900180585695979528F4805C660F88
:10313000771F881F20F026173707480730F4621BD7
:10314000730B840B202931294A2BA69517940794D9
:10315000202531254A2758F7660F771F881F20F052
:1031600026173707480730F4620B730B840B200DCA
:10317000311D411DA09581F7B901842F9158880F09
:103180009695879508950E949D15880B990B089533
:103190009F3F31F0915020F4879577956795B795CB
:1031A000880F911D9695879597F9089591505040F5
:1031B000660F771F881FD2F70895EE0FFF1F881F35
:1031C0008BBF0790F691E02D1994FB01DC018D91E6
:1031D000019080190110D9F3990B0895CF93DF93D3
:1031E000CDB7DEB72E970FB6F894DEBF0FBECDBFBA
:1031F00085E08C838C899D899A838983AE01485EA2
:103200005F4F6E897F89CE0101960E94BA1A2E9671
:103210000FB6F894DEBF0FBECDBFDF91CF910895FA
:1032200020FD09C0FC0123FD05C022FF02C07383FD
:10323000628351834083089544FD17C046FD1DC03D
:10324000DB01FC01AA0FBB1FEE1FFF1F1094D1F77B
:103250006A0F7B1F8E1F9F1F660F771F881F991F86
:10326000620F711D811D911D089533E0660F771F58
:10327000881F991F3150D1F7F3CF34E0F7CF0F9368
:103280001F93CF93DF938C01C8010E94DE1BEC01DA
:1032900097FD08C00E944715892BB1F7B801CE01F0
:1032A0000E941A1CCE01DF91CF911F910F910895BA
:1032B0008F929F92AF92BF92EF92FF920F931F93C4
:1032C000CF93DF938C01D62F7A01B22E0E94DE1BA2
:1032D0009C0133272B32310529F02D323105A9F419
:1032E0006894B7F8D15061F480E0DF91CF911F91DD
:1032F0000F91FF90EF90BF90AF909F908F900895A7
:10330000C8010E94DE1B97FDEFCFCB2DCD7F2B2D6B
:103310002073F9F48033E9F4AA24AA94AD0E89F05D
:10332000C8010E94DE1B97FD0CC0282F2F7D283579
:1033300061F4C264D25029F0C8010E94DE1B97FFDD
:1033400008C0812C912C54011BC0B6FE2BC0C2605A
:10335000DA2D812C912C540120ED280F283028F1F2
:10336000C4FD09C02A3008F1C6FF05C02F7D3FEE1D
:10337000320F3630C8F0B8010E941A1CC1FFB4CF1A
:10338000C7FF08C0B094A09490948094811C911CB5
:10339000A11CB11C2C2FB501A401C7010E9410195A
:1033A00081E0A3CFC261D4CF27504C2FC501B40117
:1033B0000E941C194B015C01C260D15009F3C80185
:1033C0000E94DE1B97FFC8CFD9CF7F928F929F922A
:1033D000AF92BF92CF92DF92EF92FF920F931F9323
:1033E000CF93DF93CDB7DEB7A0970FB6F894DEBFCB
:1033F0000FBECDBF5C01962E7A01CE0101966C0105
:1034000080E2F60111928A95E9F7F501B38189010D
:1034100030E020E0712C812CA0E041E050E0F80188
:10342000B3FD8591B3FF8191982F8F01811117C052
:1034300010E000E0C801A0960FB6F894DEBF0FBE02
:10344000CDBFDF91CF911F910F91FF90EF90DF9053
:10345000CF90BF90AF909F908F907F9008958E35C2
:1034600019F42115310541F1A21713064CF48D35DD
:1034700049F18D3229F4811006C0882483941DC03F
:10348000882009F464C0E92FE695E695E695EC0DF1
:10349000FD2DF11D892F8770BA0101C0660F8A9535
:1034A000EAF78081682B6083791651F0971510F444
:1034B0009F5FE9CF9150E7CFA1E02F5F3F4FAFCFA4
:1034C000812CFBCF882019F08E8180628E83AA2305
:1034D00059F0F6019E012F5D3F4F808180958083DA
:1034E0003196E217F307C9F788248394C5010E9437
:1034F000DE1B97FD16C0E82FE695E695E695EC0DE8
:10350000FD2DF11D208130E0AC014770552702C030
:10351000359527954A95E2F720FD06C0B5010E9432
:103520001A1C882069F084CFE114F10429F0F70116
:103530008083C70101967C019A94812C9110D6CF8B
:10354000E114F10409F476CFF701108273CFE82F6C
:10355000E695E695E695EC0DFD2DF11D982F9770FB
:10356000BA0101C0660F9A95EAF79081692B6083D2
:10357000782EA3CF5F926F927F928F929F92AF929D
:10358000BF92CF92DF92EF92FF920F931F93CF9350
:10359000DF936C01EB015A01FC0117821682512C5A
:1035A000F601E380FE01E3FC8591E3FE8191182F93
:1035B000EF018823E9F090E00E944715892B21F064
:1035C000C6010E943F19ECCF153241F4FE01E3FC25
:1035D0001591E3FE1191EF01153269F4C6010E94C5
:1035E000DE1B97FD8EC01817D9F2B6010E941A1C77
:1035F000852D90E08AC000E01A3231F4E3FC159189
:10360000E3FE1191EF0101E0F12C20ED210F2A30B2
:1036100048F101FF37C0FF2059F31836B1F11C36CD
:1036200009F43DC0112321F3612F70E08AEF91E08E
:103630000E94D31B892BE1F2912C812C00FD06C046
:10364000F50180809180C50102965C011E3679F5F6
:10365000F6014681578170E060E0202FC4010E948E
:1036600010199ECF02606F2D70E090E080E040E284
:103670000E941C19F62EFE01E3FC1591E3FE119148
:10368000EF01C3CFFF24FA94C8CFFE01E3FC1591EC
:10369000E3FE1191EF01183609F0C4CF0860046011
:1036A000FE01E3FC1591E3FE1191EF01BBCF133650
:1036B000C1F401FD02C0FF24F394C6010E94DE1B89
:1036C00097FD1FC08114910429F0F4018083C40187
:1036D00001964C01FA94F110F0CF00FD61CF5394A4
:1036E0005FCF1B3511F59E01A4016F2DC6010E940D
:1036F000E519EC01892B89F7F6018381807309F4C0
:1037000077CF8FEF9FEF511073CFDF91CF911F9144
:103710000F91FF90EF90DF90CF90BF90AF909F9070
:103720008F907F906F905F900895C6010E943F191F
:1037300097FDE7CF1F36A9F130F4143641F0193662
:1037400039F0006405C01337B9F01537D1F70062BE
:10375000202FA4016F2DC6010E9458198111BDCFE1
:10376000CBCF8114910429F0F4016082C401019649
:103770004C01FA94FF2071F0C6010E94DE1B3C014F
:1037800097FD08C00E944715892B59F3B601C30164
:103790000E941A1C8114910409F49FCFF401108235
:1037A0009CCF0061D5CFFC010590061621F00020CA
:1037B000D9F7C00108953197CF010895CF93DF93D2
:1037C000EC012B8120FF1AC026FF0CC02F7B2B831E
:1037D0008E819F8101969F838E838A8190E0DF9105
:1037E000CF91089522FF18C0E881F9818081082EC9
:1037F000000C990B009729F420622B838FEF9FEF29
:10380000EECF3196F983E8832E813F812F5F3F4FC2
:103810003F832E839927E3CFEA85FB85199597FF90
:10382000F3CF2B81019621F080E2822B8B83E6CFB0
:1038300080E1FBCFFB01238120FF11C026FD0FC0DB
:103840008F3F980771F082832F7D20642383268128
:1038500037812150310937832683992708958FEFC7
:083860009FEF0895F894FFCFDB
:103868000006000600060006000600060006000620
:103878000000A040F6281E42000000008502EF016B
:103888001C02D2024D022B023F026E616E00696E6D
:1038980066006F766600564D4450565F317C315F46
:1038A800564D4450560A00564D4450525F00564DEE
:1038B8004450455F003A323A007C005F564D445010
:1038C80045000D0A0073746F70004F4B0066726FED
:1038D8006E74006C65667400726967687400626172
:1038E800636B0072657365740074657374003130BE
:1038F800636D00757000646F776E00556E6974258E
:10390800664400506F7300506F732F00676F2F2548
:06391800642F2564450048
:020000023000CC
:10E000000D9489F10D94B2F10D94B2F10D94B2F129
:10E010000D94B2F10D94B2F10D94B2F10D94B2F1F0
:10E020000D94B2F10D94B2F10D94B2F10D94B2F1E0
:10E030000D94B2F10D94B2F10D94B2F10D94B2F1D0
:10E040000D94B2F10D94B2F10D94B2F10D94B2F1C0
:10E050000D94B2F10D94B2F10D94B2F10D94B2F1B0
:10E060000D94B2F10D94B2F10D94B2F10D94B2F1A0
:10E070000D94B2F10D94B2F10D94B2F10D94B2F190
:10E080000D94B2F10D94B2F10D94B2F10D94B2F180
:10E090000D94B2F10D94B2F10D94B2F10D94B2F170
:10E0A0000D94B2F10D94B2F10D94B2F10D94B2F160
:10E0B0000D94B2F10D94B2F10D94B2F10D94B2F150
:10E0C0000D94B2F10D94B2F10D94B2F10D94B2F140
:10E0D0000D94B2F10D94B2F10D94B2F10D94B2F130
:10E0E0000D94B2F141546D656761323536300041AF
:10E0F000726475696E6F206578706C6F72657220DE
:10E1000073746B3530305632206279204D4C530099
:10E11000426F6F746C6F616465723E004875683F52
:10E1200000436F6D70696C6564206F6E203D200048
:10E130004350552054797065202020203D20005FF9
:10E140005F4156525F415243485F5F3D2000415658
:10E1500052204C696243205665723D20004743437C
:10E160002056657273696F6E203D20004350552024
:10E1700049442020202020203D20004C6F7720663D
:10E18000757365202020203D20004869676820665F
:10E190007573652020203D200045787420667573D6
:10E1A00065202020203D20004C6F636B2066757336
:10E1B000652020203D20004D617220203720323024
:10E1C000313300312E362E3800342E332E350056A2
:10E1D00023202020414444522020206F7020636F70
:10E1E00064652020202020696E73747275637469E1
:10E1F0006F6E2061646472202020496E74657272B3
:10E20000757074006E6F20766563746F7200726A49
:10E210006D702020006A6D70200057686174207056
:10E220006F72743A00506F7274206E6F7420737541
:10E2300070706F72746564004D7573742062652030
:10E2400061206C6574746572002000577269747483
:10E25000696E672045450052656164696E672045B7
:10E26000450045452065727220636E743D00504F35
:10E27000525400303D5A65726F2061646472003FF1
:10E280003D43505520737461747300403D454550C3
:10E29000524F4D207465737400423D426C696E6B41
:10E2A000204C454400453D44756D70204545505215
:10E2B0004F4D00463D44756D7020464C415348001B
:10E2C000483D48656C70004C3D4C69737420492F83
:10E2D0004F20506F72747300513D51756974005234
:10E2E0003D44756D702052414D00563D73686F7707
:10E2F00020696E7465727275707420566563746FF0
:10E30000727300593D506F727420626C696E6B00BD
:10E310002A0011241FBECFEFD1E2DEBFCDBF01E046
:10E320000CBF12E0A0E0B2E0EEE1FDEF03E00BBFB6
:10E3300002C007900D92A030B107D9F712E0A0E01B
:10E34000B2E001C01D92AE30B107E1F70F9460F367
:10E350000D948DFE01E20EBF0FEF0DBF11241FBE05
:10E360000D9460F30D9400F020E030E040ED57E0B4
:10E3700005C0FA013197F1F72F5F3F4F2817390792
:10E38000C0F308959C01260F311DC901A0E0B0E043
:10E390002F5F3F4FABBFFC018791882361F08093D3
:10E3A000C6008091C00086FFFCCF8091C0008064D1
:10E3B0008093C000EACF08958DE08093C6008091DD
:10E3C000C00086FFFCCF8091C00080648093C000B5
:10E3D0008AE08093C6008091C00086FFFCCF8091C8
:10E3E000C00080648093C00008950F94C2F10F9420
:10E3F000DCF10895FC019081992359F09093C600B7
:10E400008091C00086FFFCCF8091C0008064809323
:10E41000C0003196992379F70895282F982F929567
:10E420009F70892F805D8A3308F0895F8093C600D2
:10E430008091C00086FFFCCF8091C00080648093F3
:10E44000C000822F8F70982F905D9A3308F0995FEB
:10E450009093C6008091C00086FFFCCF8091C000E1
:10E4600080648093C00008959C01FB01853691056E
:10E470001CF46330710594F0C90164E670E00F94F8
:10E480002EFE605D7F4F6093C6008091C00086FFC6
:10E49000FCCF8091C00080648093C0002B30310598
:10E4A00014F43297B4F0C90164E670E00F942EFEC4
:10E4B0006AE070E00F942EFE605D7F4F6093C600AF
:10E4C0008091C00086FFFCCF8091C0008064809363
:10E4D000C000C9016AE070E00F942EFEC0968093E0
:10E4E000C6008091C00086FFFCCF8091C000806490
:10E4F0008093C00008951F93182F8EE692EE60E07F
:10E500000F94C2F11093C6008091C00086FFFCCF2B
:10E510008091C00080648093C0000F94DCF11F9153
:10E5200008952F923F924F925F926F927F928F92B7
:10E530009F92AF92BF92CF92DF92EF92FF920F9392
:10E540001F93DF93CF93CDB7DEB762970FB6F894E2
:10E55000DEBF0FBECDBF382E622ECA01DB015C01CB
:10E560006D01772420E2222E2E010894411C511CBB
:10E570008BC081E0A81680E0B80681E0C80680E084
:10E58000D80628F0C601AA27BB270F940DF2BB2797
:10E59000AD2D9C2D8B2D0F940DF28A2D0F940DF225
:10E5A0002092C6008091C00086FFFCCF8091C00001
:10E5B00080648093C0009DE29093C6008091C0006B
:10E5C00086FFFCCF8091C00080648093C0002092C1
:10E5D000C6008091C00086FFFCCF8091C00080649F
:10E5E0008093C00019828601750188249924A1E0D6
:10E5F0003A1651F03A1620F0B2E03B1661F409C029
:10E600000BBFF701779007C0C7010F9477FE782EF4
:10E6100002C0F7017080872D0F940DF22092C60082
:10E620008091C00086FFFCCF8091C0008064809301
:10E63000C000872D8052F401EF70F0708F3520F408
:10E64000E40DF51D708204C0E40DF51D8EE280839B
:10E650000894E11CF11C011D111D0894811C911CE2
:10E6600090E18916910409F0C2CF80E190E0A0E02A
:10E67000B0E0A80EB91ECA1EDB1E198AC2010F9493
:10E68000FAF10F94DCF16A94662009F072CF629679
:10E690000FB6F894DEBF0FBECDBFCF91DF911F91B3
:10E6A0000F91FF90EF90DF90CF90BF90AF909F9031
:10E6B0008F907F906F905F904F903F902F90089534
:10E6C0002F923F924F925F926F927F928F929F9282
:10E6D000AF92BF92CF92DF92EF92FF920F931F9370
:10E6E000DF93CF93CDB7DEB7CD53D1400FB6F894BB
:10E6F000DEBF0FBECDBF01E20EBF0FEF0DBF94B75F
:10E70000F894A89514BE80916000886180936000A1
:10E7100010926000789493FF05C0E0910002F091A0
:10E7200001021995279A2F9A8091C00082608093E8
:10E73000C00080E18093C40088E18093C1000000A4
:10E74000EE24FF24870144E0A42EB12CCC24DD2448
:10E7500024C0C5010197F1F70894E11CF11C011DCB
:10E76000111D21E2E2162EE4F20620E0020720E06D
:10E77000120718F031E0C32ED12CC801B70127ECE5
:10E780003BE140E050E00F9441FE611571058105C9
:10E79000910519F485B1805885B98091C00087FD35
:10E7A00003C0C114D104A9F2A6014F5F5F4FC25E3E
:10E7B000DE4F59834883CE51D140C25EDE4F8881FF
:10E7C0009981CE51D140019711F00D9410FEC05D9A
:10E7D000DE4F19821882C053D14060E0C15DDE4F28
:10E7E0001882CF52D14088249924C35DDE4F19820C
:10E7F0001882CD52D140C05EDE4F188219821A8233
:10E800001B82C052D140CE5CDE4F188219821A8220
:10E810001B82C253D140EE24FF2487010BBFF701B6
:10E8200007911691C45CDE4F19830883CC53D14005
:10E830000D940BFEC25EDE4F28813981CE51D1404E
:10E840002130310509F52091C600C25EDE4F1982E4
:10E850001882CE51D14022C02F5F3F4F4F4F5F4FA4
:10E86000213082E138078AE7480780E0580780F0C6
:10E87000C45CDE4FE881F981CC53D140EF5FFF4F9C
:10E8800019F0EE27FF27099420E030E040E050E047
:10E890008091C00087FFE0CF2091C600C35DDE4FAE
:10E8A00048815981CD52D1404F5F5F4FC35DDE4FEC
:10E8B00059834883CD52D140213209F063C64A3092
:10E8C000510508F05FC60894811C911C53E0851621
:10E8D000910409F059C600E010E018C081E280936D
:10E8E000C6008091C00086FFFCCF8091C00080648C
:10E8F0008093C0002F5F3F4F2931310579F70F9486
:10E90000DCF10F5F1F4F0530110519F020E030E0FA
:10E91000E5CF10920A0210920B0210920C02109294
:10E920000D02109206021092070210920802109235
:10E930000902109202021092030210920402109235
:10E9400005028FEE90EE60E00F94F5F180E191EE1C
:10E9500060E00F94C2F18091C00087FFFCCF9091DE
:10E96000C600903608F09F759032B8F09093C600BC
:10E970008091C00086FFFCCF8091C00080648093AE
:10E98000C000A0E2A093C6008091C00086FFFCCF2B
:10E990008091C00080648093C000983409F4D7C18E
:10E9A0009934B8F4923409F459C1933458F490333B
:10E9B00019F1903308F4E3C59F33A1F1903409F0C5
:10E9C000DEC5BDC0953409F470C1963409F0D7C5D1
:10E9D00098C1923509F42BC2933538F49C3409F46C
:10E9E000F5C1913509F0CBC518C2963509F445C279
:10E9F000993509F0C4C567C483E792EE62E00F94CD
:10EA0000F5F110920602109207021092080210927D
:10EA1000090210920A0210920B0210920C0210923C
:10EA20000D0213C18FE792EE62E00F94F5F18FEEC5
:10EA300090EE60E00F94F5F181E291EE60E00F94CA
:10EA4000C2F187EB91EE60E00F94F5F180E391EE77
:10EA500060E00F94C2F184EE90EE60E00F94F5F167
:10EA60008FE391EE60E00F94C2F186E090E061E008
:10EA700070E00F9434F20F94DCF18DE591EE60E0DC
:10EA80000F94C2F189EC91EE60E00F94F5F18EE401
:10EA900091EE60E00F94C2F183EC91EE60E00F9490
:10EAA000F5F18CE691EE60E00F94C2F18EE10F94E7
:10EAB0000DF288E90F940DF281E00F940DF20F949E
:10EAC000DCF18BE791EE60E00F94C2F119E0E0E039
:10EAD000F0E010935700E4918E2F0F940DF20F94F5
:10EAE000DCF18AE891EE60E00F94C2F1E3E0F0E03F
:10EAF00010935700E4918E2F0F940DF20F94DCF1D8
:10EB000089E991EE60E00F94C2F1E2E0F0E0109349
:10EB10005700E4918E2F0F940DF20F94DCF188EAE8
:10EB200091EE60E00F94C2F1E1E0F0E01093570045
:10EB30001491812F0F940DF20F94DCF107CF8BE825
:10EB400092EE62E00F94F5F18BE492EE60E00F94A8
:10EB5000F5F10F94DCF100E010E019C0C8016F2D51
:10EB60000F947FFEFF2031F489E492EE60E00F9471
:10EB7000C2F10BC0F092C6008091C00086FFFCCFAE
:10EB80008091C00080648093C0000F5F1F4FC80158
:10EB900081519F41A0E0B0E0ABBFFC01F790BAE229
:10EBA000FB1621F0E2E000301E07C1F60F94DCF105
:10EBB0000F94DCF187E592EE60E00F94F5F10F948D
:10EBC000DCF1CC24DD2400E010E01EC0C8010F946D
:10EBD00077FEF82E882331F489E492EE60E00F94FA
:10EBE000C2F10BC08093C6008091C00086FFFCCFAD
:10EBF0008091C00080648093C000FE1419F00894D6
:10EC0000C11CD11C0F5F1F4FC80181519F41A0E063
:10EC1000B0E0ABBFFC01E790FAE2EF1621F022E092
:10EC20000030120799F60F94DCF10F94DCF182E6C4
:10EC300092EE60E00F94C2F1C60161E070E00F94C3
:10EC400034F20F94DCF10F94DCF110920202109276
:10EC50000302109204021092050278CE89E992EE26
:10EC600062E00F94F5F1279A2F9A16C02F9880E052
:10EC700090E0E0EDF7E03197F1F7019684369105E9
:10EC8000C1F72F9A80E090E0E0EDF7E03197F1F7DF
:10EC9000019684369105C1F78091C00087FFE6CFC9
:10ECA0008091C00087FFFCCF64C485EA92EE62E0E9
:10ECB0000F94F5F140910202509103026091040219
:10ECC0007091050281E020E10F9491F2809102029F
:10ECD00090910302A0910402B091050280509F4FD1
:10ECE000AF4FBF4F8093020290930302A0930402A0
:10ECF000B093050280509041A040B04008F426CE69
:10ED0000A4CF83EB92EE62E00F94F5F140910602FE
:10ED100050910702609108027091090280E020E1A1
:10ED20000F9491F28091060290910702A09108023F
:10ED3000B091090280509F4FAF4FBF4F80930602A2
:10ED400090930702A0930802B0930902FFCD80ECD4
:10ED500092EE62E00F94F5F183E792EE60E00F949B
:10ED6000F5F18FE792EE60E00F94F5F18BE892EE0B
:10ED700060E00F94F5F189E992EE60E00F94F5F10F
:10ED800085EA92EE60E00F94F5F183EB92EE60E09D
:10ED90000F94F5F180EC92EE60E00F94F5F187ECC2
:10EDA00092EE60E00F94F5F188ED92EE60E00F9442
:10EDB000F5F18FED92EE60E00F94F5F18AEE92EEB0
:10EDC00060E00F94F5F183E093EEBDCD87EC92EE19
:10EDD00062E00F94F5F181E40F947BF282E40F94EA
:10EDE0007BF283E40F947BF284E40F947BF285E45E
:10EDF0000F947BF286E40F947BF287E40F947BF20E
:10EE000088E40F947BF28AE40F947BF28BE40F94F6
:10EE10007BF28CE40F947BF299CD88ED92EE62E068
:10EE20000F94F5F1772473948824992409C48FED05
:10EE300092EE62E00F94F5F140910A0250910B02BC
:10EE400060910C0270910D0282E020E10F9491F22A
:10EE500080910A0290910B02A0910C02B0910D02D8
:10EE600080509F4FAF4FBF4F80930A0290930B0289
:10EE7000A0930C02B0930D0269CD8AEE92EE62E08F
:10EE80000F94F5F184EE90EE60E00F94F5F18FECC5
:10EE900091EE60E00F94F5F1662477244301CC5D98
:10EEA000DE4F19821882C452D140D401C301B695F5
:10EEB000A79597958795CA5DDE4F88839983AA8326
:10EEC000BB83C652D140CC5DDE4FA881B981C4520C
:10EED000D1401196CC5DDE4FB983A883C452D14096
:10EEE000CD0162E070E00F9434F2B0E2B093C6005E
:10EEF0008091C00086FFFCCF8091C0008064809329
:10EF0000C000EDE2E093C6008091C00086FFFCCF18
:10EF10008091C00080648093C000F0E2F093C6004E
:10EF20008091C00086FFFCCF8091C00080648093F8
:10EF3000C000CA5DDE4FE880F9800A811B81C6529D
:10EF4000D140BB27A12F902F8F2D0F940DF2CA5DBA
:10EF5000DE4F8881C652D1400F940DF2B0E2FB2EF5
:10EF6000F092C6008091C00086FFFCCF8091C00067
:10EF700080648093C0000DE30093C6008091C000C0
:10EF800086FFFCCF8091C00080648093C00010E2B7
:10EF90001093C6008091C00086FFFCCF8091C00016
:10EFA00080648093C0008BBEF3012791C65DDE4F65
:10EFB0002883CA52D140A22EBB24CC24DD2408943D
:10EFC000611C711C811C911C8BBEF3018791282E42
:10EFD0003324442455240894611C711C811C911C09
:10EFE0008BBEF3013791C55DDE4F3883CB52D140E4
:10EFF0000894611C711C811C911C8BBEF30147910C
:10F00000C45DDE4F4883CC52D140ADEFEA2EAFEF66
:10F01000FA2EAFEF0A2FAFEF1A2F6E0C7F1C801E57
:10F02000911E142D032DF22CEE24EA0CFB1C0C1D5A
:10F030001D1D0F940DF220E22093C6008091C000A8
:10F0400086FFFCCF8091C00080648093C000C65DC5
:10F05000DE4F8881CA52D1400F940DF230E23093D6
:10F06000C6008091C00086FFFCCF8091C000806404
:10F070008093C000C45DDE4F8881CC52D1400F9494
:10F080000DF240E24093C6008091C00086FFFCCFA5
:10F090008091C00080648093C000C55DDE4F888190
:10F0A000CB52D1400F940DF250E25093C6008091A4
:10F0B000C00086FFFCCF8091C00080648093C000B8
:10F0C0008FEFE8168FEFF80680E0080780E018075A
:10F0D00031F484E092EE60E00F94C2F1DFC0D80119
:10F0E000C7018070907CA070B0708050904CA040A0
:10F0F000B040D1F52FEF3FE340E050E0E222F322B1
:10F1000004231523CA5DDE4FA880B980CA80DB8046
:10F11000C652D140AE0CBF1CC01ED11EAA0CBB1CD7
:10F12000CC1CDD1C8EE092EE60E00F94C2F1BB2798
:10F13000A12F902F8F2D0F940DF28E2D0F940DF285
:10F1400030E23093C6008091C00086FFFCCF8091F2
:10F15000C00080648093C0004EE34093C60080915D
:10F16000C00086FFFCCF87C08EE09EEFA0E0B0E03D
:10F17000E822F9220A231B239CE0E91694E9F90608
:10F1800090E0090790E0190709F088C0C45DDE4FE0
:10F19000A881CC52D140EA2EFF2400E010E0102FCD
:10F1A0000F2DFE2CEE24C55DDE4FB881CB52D14031
:10F1B000EB0EF11C011D111DD601C501817090706F
:10F1C000A070B070DC0199278827E80EF91E0A1F8D
:10F1D0001B1F20EF30E040E050E0A222B322C42207
:10F1E000D52241E1AA0CBB1CCC1CDD1C4A95D1F7F1
:10F1F000EA0CFB1C0C1D1D1D81E090E0A0E0B0E0BE
:10F20000282239224A225B2235E1220C331C441C7D
:10F21000551C3A95D1F7E20CF31C041D151D57013E
:10F220006801AA0CBB1CCC1CDD1C85E192EE60E0E1
:10F230000F94C2F1C801AA27BB270F940DF2BB2778
:10F24000A12F902F8F2D0F940DF28E2D0F940DF274
:10F2500090E29093C6008091C00086FFFCCF809121
:10F26000C00080648093C000AEE3A093C60080918C
:10F27000C00086FFFCCF8091C00080648093C000F6
:10F28000C601AA27BB270F940DF2BB27AD2D9C2DDD
:10F290008B2D0F940DF28A2D0F940DF20F94DCF14B
:10F2A000CC5DDE4FE881F981C452D140F99709F471
:10F2B0004DCBF4E0EF2EF12C012D112D6E0C7F1CA7
:10F2C000801E911EF2CD83E093EE62E00F94F5F183
:10F2D0008AE192EE60E00F94C2F18091C00087FF56
:10F2E000FCCF1091C6001F751093C6008091C0001E
:10F2F00086FFFCCF8091C00080648093C0000F9493
:10F30000DCF1812F81548A3108F036C1163409F4BA
:10F3100095C0173490F4133409F44EC0143430F40B
:10F320001134F1F0123409F01DC130C0143409F465
:10F3300059C0153409F016C16BC01A3409F4C4C0A1
:10F340001B3438F4173409F48FC0183409F00AC19B
:10F35000A1C01B3409F4D2C01C3409F003C1E8C0B9
:10F360008FEF81B90DC082B1809582B980E090E0C5
:10F37000E0EDF7E03197F1F70196883C9105C1F790
:10F380008091C00087FFEFCF12B8EFC08FEF84B934
:10F390000DC085B1809585B980E090E0E0EDF7E0A3
:10F3A0003197F1F70196883C9105C1F78091C00033
:10F3B00087FFEFCF15B8D9C08FEF87B90DC088B1DF
:10F3C000809588B980E090E0E0EDF7E03197F1F7C3
:10F3D0000196883C9105C1F78091C00087FFEFCF6F
:10F3E00018B8C3C08FEF8AB90DC08BB180958BB9A7
:10F3F00080E090E0E0EDF7E03197F1F70196883C8E
:10F400009105C1F78091C00087FFEFCF1BB8ADC059
:10F410008FEF8DB90DC08EB180958EB980E090E0F0
:10F42000E0EDF7E03197F1F70196883C9105C1F7DF
:10F430008091C00087FFEFCF1EB897C08FEF80BBD1
:10F440000DC081B3809581BB80E090E0E0EDF7E0F6
:10F450003197F1F70196883C9105C1F78091C00082
:10F4600087FFEFCF11BA81C08FEF83BB0DC084B38C
:10F47000809584BB80E090E0E0EDF7E03197F1F714
:10F480000196883C9105C1F78091C00087FFEFCFBE
:10F4900014BA6BC08FEF809301010FC080910201FD
:10F4A00080958093020180E090E0E0EDF7E03197F5
:10F4B000F1F70196883C9105C1F78091C00087FF64
:10F4C000EDCF1092020151C08FEF809304010FC065
:10F4D0008091050180958093050180E090E0E0ED4A
:10F4E000F7E03197F1F70196883C9105C1F78091DB
:10F4F000C00087FFEDCF1092050137C08FEF8093DA
:10F5000007010FC08091080180958093080180E079
:10F5100090E0E0EDF7E03197F1F70196883C910536
:10F52000C1F78091C00087FFEDCF109208011DC088
:10F530008FEF80930A010FC080910B01809580931B
:10F540000B0180E090E0E0EDF7E03197F1F70196F4
:10F55000883C9105C1F78091C00087FFEDCF1092E4
:10F560000B0103C085E292EEEEC98091C00087FFD7
:10F57000FCCF8091C600EAC988E392EEE4C98CE131
:10F5800091EEE1C988249924933011F1943028F444
:10F59000913089F09230B8F408C0953061F195301F
:10F5A000F0F0963009F048C043C02B3109F042C951
:10F5B00091E06BE13FC96227C15DDE4F2883CF52E6
:10F5C000D14092E037C9B22FA0E0622793E032C960
:10F5D000822F90E0A82BB92B622794E02BC92E3004
:10F5E00009F039C3622795E0C05DDE4F19821882A9
:10F5F000C053D1401FC9E1E0F0E0EC0FFD1FC05D3A
:10F60000DE4F08811981C053D140E00FF11F2083E4
:10F610000F5F1F4FC05DDE4F19830883C053D14079
:10F6200062270A171B0709F005C9D80196E002C92D
:10F63000261709F010C303C0973009F0FBC87724E0
:10F640009981933109F412C19431C8F4963009F4C8
:10F65000D8C0973050F4923009F406C1933009F4C1
:10F660006DC0913009F059C253C0913109F477C08F
:10F67000923108F0BBC0903109F04FC2F5C098310B
:10F6800009F487C0993150F4953109F4EFC09531F0
:10F6900008F4C6C1963109F040C2C2C19A3109F4DA
:10F6A0006CC09A3108F491C09B3109F45BC09D3164
:10F6B00009F033C29D81903359F48F81882311F46E
:10F6C0009EE11CC0813011F091E018C098E916C08D
:10F6D000892F807591F0903539F4E0E0F0E089E011
:10F6E0008093570094910AC0983539F4E3E0F0E034
:10F6F00089E080935700949101C090E01A821B82A8
:10F700008D818C831D829E831F8227E030E009C299
:10F710001A8288E08B8381E48C8386E58D8382E581
:10F720008E8389E48F8383E5888780E589878FE5E9
:10F730008A8782E38B872BE030E0F3C18A818139AD
:10F7400041F0823941F0803911F48FE005C080E04A
:10F7500003C082E001C08AE01A828B8344C0772410
:10F76000739482C08D81882311F48EE12CC0813086
:10F7700011F081E028C088E926C01A82E1E0F0E0BB
:10F7800089E08093570084918B831C8224E030E0D1
:10F79000C8C18B81803589F48C81883039F4E2E0EE
:10F7A000F0E089E08093570084910DC0E0E0F0E044
:10F7B00089E080935700849106C0E3E0F0E089E09F
:10F7C0008093570084911A82DFCF8D81836C99E0FA
:10F7D000E1E0F0E0082E90935700E89507B600FCB2
:10F7E000FDCF1A821B8223E030E09BC180EC8A832C
:10F7F000CE5CDE4F188219821A821B82C253D1401E
:10F800008EC18A8190E0A0E0B0E0582F44273327D2
:10F8100022278B8190E0A0E0B0E0DC0199278827C7
:10F82000282B392B4A2B5B2B8D8190E0A0E0B0E098
:10F83000282B392B4A2B5B2B8C8190E0A0E0B0E089
:10F84000BA2FA92F982F8827282B392B4A2B5B2BCF
:10F85000220F331F441F551FC05EDE4F288339839C
:10F860004A835B83C052D1401A8259C13A81C95C34
:10F87000DE4F3883C753D140CA5CDE4F1882C6536F
:10F88000D1408B81C82EDD24CA5CDE4F488159816E
:10F89000C653D140C42AD52A933109F082C0CE5C28
:10F8A000DE4F88819981AA81BB81C253D1408050AB
:10F8B000904CA340B04030F583E0CE5CDE4FE88052
:10F8C000F9800A811B81C253D140F70100935B008C
:10F8D00080935700E89507B600FCFDCFCE5CDE4F65
:10F8E000088119812A813B81C253D14000501F4FAA
:10F8F0002F4F3F4FCE5CDE4F088319832A833B8313
:10F90000C253D140C05EDE4F488159816A817B81FC
:10F91000C052D140DE011B9631E08C9111962C91A2
:10F9200011971296C75CDE4F2883C953D140C85C3B
:10F93000DE4F1882C853D14090E0C85CDE4FE881AA
:10F94000F981C853D1408E2B9F2B0C01FA01609393
:10F950005B0030935700E89511244E5F5F4F6F4F67
:10F960007F4F0EEFE02E0FEFF02ECE0CDF1CC114F8
:10F97000D10499F685E0C05EDE4F088119812A81A5
:10F980003B81C052D140F80120935B008093570027
:10F99000E89507B600FCFDCF81E180935700E8951C
:10F9A00035C0C05EDE4F88819981AA81BB81C0527B
:10F9B000D140B695A795979587957C018601ABE0D8
:10F9C000AA2EB12CAC0EBD1E0BC0D5016D915D01F0
:10F9D000C7010F947FFE0894E11CF11C01501040F8
:10F9E0000115110591F7A60160E070E0440F551F65
:10F9F000661F771FC05EDE4FE880F9800A811B8199
:10FA0000C052D1404E0D5F1D601F711F1A82C05E33
:10FA1000DE4F488359836A837B83C052D1407FC0C5
:10FA2000FA80C55CDE4FF882CB53D140C65CDE4F16
:10FA30001882CA53D1408B81C82EDD24C65CDE4FAC
:10FA400008811981CA53D140C02AD12A1A828981DA
:10FA5000BE016D5F7F4F843121F59601C05EDE4FA0
:10FA6000E880F9800A811B81C052D1400BBFF701A9
:10FA700087919691DB018C9311969C936E5F7F4FDB
:10FA8000D801C7010296A11DB11DC05EDE4F88835B
:10FA90009983AA83BB83C052D14022503040F1F6F3
:10FAA00036C0C05EDE4F288139814A815B81C052F9
:10FAB000D1400894C108D108760100E010E0089414
:10FAC000C11CD11C0894E11CF11C011D111DE20E8A
:10FAD000F31E041F151F21BDBB27A52F942F832FB5
:10FAE00082BD2F5F3F4F4F4F5F4FF89A80B5DB01CC
:10FAF0008D93BD012E153F054007510761F7C05E8C
:10FB0000DE4F288339834A835B83C052D1409601FC
:10FB10002D5F3F4FFB01108204C080EC8A8322E0FE
:10FB200030E08BE18093C6008091C00086FFFCCF5F
:10FB30008091C00080648093C000C15DDE4FF88179
:10FB4000CF52D140F093C6008091C00086FFFCCF19
:10FB50008091C00080648093C000432F3093C60022
:10FB60008091C00086FFFCCF8091C00080648093AC
:10FB7000C000922F2093C6008091C00086FFFCCF6A
:10FB80008091C00080648093C0008EE08093C600A6
:10FB90008091C00086FFFCCF8091C000806480937C
:10FBA000C00065E1C15DDE4FE880CF52D1406E25D7
:10FBB00069276427FE01319610C090819093C6009A
:10FBC0008091C00086FFFCCF31968091C000806498
:10FBD0008093C0006927215030402115310569F715
:10FBE0006093C6008091C00086FFFCCF8091C0006A
:10FBF00080648093C00085B1805885B9772081F4F6
:10FC0000C15DDE4F0881CF52D1400F5FC15DDE4F35
:10FC10000883CF52D14090E0A0E0B0E00D941AF4F8
:10FC200027982F9880E090E020ED37E0F901319798
:10FC3000F1F7019684369105C9F700008091C00064
:10FC40008D7F8093C00081E180935700E895EE2777
:10FC5000FF270994FFCF90E00D941AF497FB092E2B
:10FC600007260AD077FD04D02ED006D000201AF443
:10FC7000709561957F4F0895F6F7909581959F4F08
:10FC80000895A1E21A2EAA1BBB1BFD010DC0AA1FDD
:10FC9000BB1FEE1FFF1FA217B307E407F50720F0F5
:10FCA000A21BB30BE40BF50B661F771F881F991F70
:10FCB0001A9469F760957095809590959B01AC01B9
:10FCC000BD01CF010895AA1BBB1B51E107C0AA1FAC
:10FCD000BB1FA617B70710F0A61BB70B881F991FED
:10FCE0005A95A9F780959095BC01CD010895F99991
:10FCF000FECF92BD81BDF89A992780B50895262F31
:10FD0000F999FECF1FBA92BD81BD20BD0FB6F89400
:0EFD1000FA9AF99A0FBE01960895F894FFCF63
:040000033000E000E9
:00000001FF